:020000040800F2
:1000000000000220AD260008FD260008FD2600089D
:10001000FD260008FD260008FD260008000000005F
:10002000000000000000000000000000FD260008A5
:10003000FD26000800000000FD260008CB1800087F
:10004000FD260008FD260008FD260008FD26000804
:10005000FD260008FD260008092500080F250008D8
:10006000152500081B25000821250008FD2600088D
:10007000FD260008FD260008FD260008FD260008D4
:10008000FD260008FD260008FD26000800000000EF
:10009000000000000000000000000000272500080C
:1000A000052D00087D2C0008192D0008A12C000842
:1000B000B52C0008C92C0008DD2C0008FD2600081E
:1000C000FD260008FD260008FD260008FD26000884
:1000D000FD260008592200087122000800000000D7
:1000E0003D250008811B0008FD26000800000000D7
:1000F000000000000000000000000000FD260008D5
:1001000000000000FD260008F12C0008FD26000874
:1001100000000000000000000000000000000000DF
:10012000FD260008FD260008FD260008FD26000823
:10013000FD26000800000000000000000000000094
:10014000000000000000000000000000FD26000884
:10015000FD260008FD260008FD260008892200086B
:10016000FD260008FD260008000000000000000039
:10017000000000000000000000000000000000007F
:1001800000000000FD260008000000000000000044
:08019000FD260008FD26000811
:10019800034613F8012B002AFBD1181A01387047BF
:1001A80053B94AB9002908BF00281CBF4FF0FF31D6
:1001B8004FF0FF3000F00CB8ADF1080C6DE904CE3B
:1001C80002F0E8FFDDF804E0DDE9022304B070473F
:1001D800704700BF10B5054C237833B9044B13B1F1
:1001E8000448AFF300800123237010BD8C00002069
:1001F800000000006034000808B5034B1BB1034938
:100208000348AFF3008008BD000000009000002004
:100218006034000808B50021352002F095FA002165
:10022800362002F091FA06484FF4E131062202F036
:10023800DDFBBDE808400349014802F0A5BD00BF49
:10024800500200207834000838B514491448154D78
:1002580002F09AFD002415F8011B11480A22013406
:1002680002F0DBFD0A2CF6D10F490D4802F08CFD97
:100278000E490B4802F079FD0D4B094819682246D2
:1002880002F0CDFD0B49064802F06FFD0A4B044809
:1002980019682246BDE8384002F0C1BD7E34000826
:1002A80050020020B0000020853400089534000872
:1002B800BC000020A2340008AC00002010B5054B9B
:1002C8000A2219465C7803F8014B013AFAD1887280
:1002D80010BD00BFB000002038B5104C104D1149BA
:1002E800204602F042FDE9790A22204602F095FDF7
:1002F800297A0A22204602F090FD697A0A222046CD
:1003080002F08BFDA97A20460A2202F086FD2046DB
:100318000549BDE8384002F037BD00BF5002002053
:10032800B0000020B0340008C434000830B5104CC8
:100338002578854219D16078884216D1A1789142F2
:1003480013D1E2789A4210D122799DF80C309A4262
:100358000BD162799DF810309A4206D1A0799DF8A8
:100368001430C31A5842584130BD0020FCE700BF82
:100378000000002030B585B002F040FA054636206E
:1003880002F0CCF9174C2060352002F0C7F9164B63
:1003980018602368154C9842154BD4BF00200120E3
:1003A8001870FFF78BFFFFF74FFFA379029363796C
:1003B800019323790093E378A27861782078FFF796
:1003C800B5FF08B1FFF788FF02F018FA094B1B6860
:1003D800401B181A084B186005B0BDE8304002F001
:1003E8000FBA00BFAC000020BC000020B000002005
:1003F800A800002008000020C000002010B50A4C0A
:1004080022681318EFF308818B4206D9074B0C2298
:100418001A604FF0FF32104610BD05490548091A09
:100428008B42F3D22360F6E70C0000207C03002007
:1004380000000220000400007047000038B50E4A92
:100448000E4B054618784FF47A73B3FBF0F3106837
:10045800B0FBF3F000F0D4FA044658B90F2D09D8D0
:10046800024629464FF0FF3000F076FA044B20464A
:100478001D6038BD0120FCE7180000201000002096
:100488001400002008B50B4B1A6842F400721A6079
:100498001A6842F480621A601A6842F480721A601C
:1004A800032000F047FA0020FFF7C8FFFFF7C4FF5A
:1004B800002008BD003C0240034A044B11681B7829
:1004C8000B441360704700BF780300201000002021
:1004D800014B1868704700BF7803002038B5044600
:1004E800002800F09B80056C25B901F0D5FE6564F5
:1004F80084F83C50236CDB0600F18E80236C23F4D7
:10050800885323F0020343F002032364444B5A68E0
:1005180022F440325A605A6861680A435A60236874
:1005280021695A6822F480725A605A6842EA0122A4
:100538005A605A68A16822F040725A605A680A43A1
:100548005A609A68E16822F400629A609A680A43DD
:100558009A603449A26A8A4252D0996821F070613F
:10056800996099680A439A609A68E16A22F0405251
:100578009A609A680A439A609A6822F002029A601E
:100588009A68217E42EA41029A6094F82020002A63
:100598003ED05A68616A42F400625A605A6822F48E
:1005A80060425A605A68013942EA41325A60DA6A4E
:1005B800E16922F47002DA62DA6A013942EA015228
:1005C800DA629A6822F400729A609A6894F8301095
:1005D80042EA41229A609A68616922F480629A60CC
:1005E8009A68002042EA81229A606064236C23F0B2
:1005F800030343F001032364002384F83C3038BD2F
:100608009A6822F070629A609A6822F04052B2E7C3
:100618005A6822F40062C9E70120EDE70120EEE7FD
:10062800002301400100000F38B50446A0B1036C57
:1006380043F00203036403689A6822F001029A6097
:100648009D6815F0010503D101F04AFE6564256433
:10065800002084F83C0038BD0120FCE782B000236C
:10066800019390F83C30012B4ED0012380F83C30A8
:1006780003689A68D10705D59A68D20714D4002070
:1006880002B070479A68214942F001029A60204AF4
:100698001268B2FBF1F202EB42020192019A002ABF
:1006A800EAD0019A013AF8E7026C22F4E06222F0FB
:1006B800010242F4807202645A68510541BF026C1B
:1006C80022F4405242F480520264026C12F48052C6
:1006D8001CBF426C22F006024264002280F83C20D3
:1006E8006FF022021A600B4A5268D20608D1986845
:1006F80010F04050C3D19A6842F080429A60BFE738
:10070800054A9342BBD1F2E70220B9E740420F0005
:1007180018000020002301400020014090F83C30E0
:10072800012B14D003689A6822F001029A609B6832
:10073800DB0707D4036C23F4885323F0010343F049
:1007480001030364002380F83C30184670470220F8
:10075800704703689A68520570B504460D460BD574
:100768009B68DE0508D5036C43F02003036400236F
:1007780080F83C30012070BDFFF7AAFE06462368CA
:100788001A6891070CD56FF012021A60226C42F4B5
:10079800007222649A6812F0405F13D00020EAE7E2
:1007A800681CEDD045B9236C43F00403236400238F
:1007B80084F83C300320DEE7FFF78AFE801BA8425E
:1007C800DDD9F0E7207E0028E8D1DA6A12F4700F4C
:1007D80002D09B685A05E1D4236C23F48073236408
:1007E800236CDB04DAD4236C43F001032364C2E7EF
:1007F8000368D86C70470000F7B50023019390F8A0
:100808003C30012B69D0012380F83C300D68036827
:100818008E68092DACB234D904EB4402DF681E3A65
:100828004FF0070C0CFA02FC27EA0C07DF60DF68C0
:1008380006FA02F23A43DA604968062901EB8102B6
:100848002FD8596B053A1F26964021EA06015963AD
:10085800596B04FA02F20A435A63304A93420AD1A6
:10086800122D3CD12E4B5A6822F400025A605A6865
:1008780042F480025A60002380F83C30184603B0E6
:10088800F0BD1F6905EB45024FF0070C0CFA02FC9E
:1008980027EA0C071F611F6906FA02F23A431A6138
:1008A800CAE70C294FF01F010BD81E6B233A914061
:1008B80026EA01011963196B04FA02F20A431A6362
:1008C800CBE7DE6A413A914026EA0101D962D96A4A
:1008D80004FA02F20A43DA62BFE70220CFE7114BBB
:1008E8009D4201D0112DC6D10D4B5A6822F48002C9
:1008F8005A605A6842F400025A600A4B9D42BAD1C3
:10090800094B0A4A1B68B3FBF2F20A2353430193CB
:10091800019B002BAFD0019B013BF8E70020014071
:1009280000230140120000101800002040420F0070
:10093800006C70470749CA6822F4E0620302120497
:1009480003F4E063120C134343F0BF6343F4003332
:10095800CB60704700ED00E0164B30B5DC68C4F39F
:100968000224C4F10705231D042D28BF0425062BE6
:100978004FF0FF338CBF033C002403FA05F521EA4E
:100988000501A34022EA0302A140002841EA02032C
:10099800ACBF00F16040084A4FEA0313B8BF00F04B
:1009A8000F00DBB2AABF00F56140135480F8003392
:1009B80030BD00BF00ED00E014ED00E0002808DBCA
:1009C8004209012300F01F0003FA00F0014B43F82D
:1009D8002200704700E100E000280DDB43090122F6
:1009E80000F01F0002FA00F02033044A42F8230006
:1009F800BFF34F8FBFF36F8F704700BF00E100E078
:100A08000138B0F1807F0AD2064B074A5860F021BE
:100A180082F823100020072298601A60704701208E
:100A2800704700BF10E000E000ED00E0002809DB9F
:100A38004309012200F01F0002FA00F06033024A65
:100A480042F82300704700BF00E100E0704708B596
:100A5800FFF7FCFF08BD90F83530022B03D0802348
:100A68004365012070470268052380F83530136814
:100A780023F001031360002070470000044A516905
:100A8800014208B502D0506101F024FD08BD00BF45
:100A9800003C01402DE9F341044640B30368DD07FB
:100AA80010D4236898075ED423681A0700F1A08041
:100AB80023685B0700F1BE80A069002840F01F8111
:100AC80000202BE0A64B9A6802F00C02042A07D0FB
:100AD8009A6802F00C02082A0BD15A68510208D50C
:100AE8009F4B1B689A03DCD56368002BD9D1012082
:100AF80014E06268B2F5803F13D11A6842F480327C
:100B08001A60FFF7E5FC964E054633689B03C8D488
:100B1800FFF7DEFC401B6428F7D9032002B0BDE8CC
:100B2800F0818F4DB2F5A02F2B6807D143F48023B5
:100B38002B602B6843F480332B60E2E723F4803387
:100B48002B602B6823F480232B60002AD9D1FFF770
:100B5800BFFC06462B689F03A3D5FFF7B9FC801B93
:100B68006428F7D9D9E77E4B9A6812F00C0F07D0A2
:100B78009A6802F00C02082A11D15B685E020ED452
:100B8800774B1A68950702D5E268012AAFD11A682F
:100B9800216922F0F80242EAC1021A6084E7E26899
:100BA800704BB2B101221A60FFF792FC6C4D0646F9
:100BB8002B68980707D52B68226923F0F80343EAC6
:100BC800C2032B6070E7FFF783FC801B0228EFD974
:100BD800A3E71A60FFF77CFC614E05463368990766
:100BE8007FF562AFFFF774FC401B0228F6D994E743
:100BF80062695D4B7AB101221A60FFF769FC584EB1
:100C08000546736F9F073FF553AFFFF761FC401B25
:100C18000228F6D981E71A60FFF75AFC504E0546BC
:100C2800736F98077FF544AFFFF752FC401B02280B
:100C3800F6D972E74A4B1A6C12F0805228D1019209
:100C48001A6C42F080521A641B6C03F080530193B3
:100C5800019B0127454D2B68D9051BD5A368404D3D
:100C6800012B27D12B6F43F001032B67FFF730FCD3
:100C78003B4E054641F28838336F9B0739D5002F24
:100C88003FF41AAF364A136C23F08053136413E70A
:100C98000027DFE72B6843F480732B60FFF718FC0D
:100CA80006462B68DA05D9D4FFF712FC801B022808
:100CB800F7D932E7052B04D12B6F43F004032B67D8
:100CC800D0E72A6F22F001022A672A6F22F0040275
:100CD8002A67002BCAD1FFF7FBFB41F2883806468A
:100CE8002B6F9807CBD5FFF7F3FB801B4045F7D94F
:100CF80013E7FFF7EDFB401B4045BDD90DE7184D45
:100D0800AB6803F00C03082B47D0194E00230228C8
:100D1800336035D1FFF7DCFB07462B68990129D4EE
:100D2800D4E907321343626A43EA8213E26A43EA68
:100D38000263A26A5208013A43EA02436B60012344
:100D48003360FFF7C5FB064D04462B689A013FF553
:100D5800B7AEFFF7BDFB001B0228F6D9DDE600BFE2
:100D68000038024000004742800E474200700040B1
:100D780060004742FFF7ACFBC01B0228CDD9CCE688
:100D8800FFF7A6FB04462B689B017FF599AEFFF79A
:100D98009FFB001B0228F6D9BFE601283FF4BEAE30
:100DA800AB68E26903F4800191427FF4A0AE216A46
:100DB80003F03F028A427FF49AAE616A47F6C07236
:100DC8001A408A427FF493AEA16A03F440328A4201
:100DD8007FF48DAEE26A03F0706393423FF470AE25
:100DE80085E600BF134908B58B6803F00C03042B94
:100DF8001CD0082B1CD14A684B68496813F480033F
:100E080014BF0D480D48C1F3881118BF002302F024
:100E18003F02A1FB0001FFF7C3F9064B5B68C3F370
:100E2800014301335B00B0FBF3F008BD0248FCE767
:100E38000248FAE70038024000127A000024F40061
:100E48002DE9F0410D46044610B90120BDE8F081B6
:100E5800444B1A6802F00F028A4228D32268970787
:100E68002DD4D00741D43F4B1A6802F00F02AA4292
:100E780066D8226851076CD4130707D53A4A216906
:100E8800936823F4604343EAC1039360FFF7AAFF22
:100E9800354B364A9B68C3F30313D35CD840344BB5
:100EA8001860344B1868FFF7C9FA0020CEE7CAB2B9
:100EB8001A701B6803F00F038B42C6D1CEE72A4B8A
:100EC80012F0040F1EBF996841F4E05199601607AB
:100ED80042BF996841F4604199602349A0688B68D2
:100EE80023F0F00303438B60BBE762681E4B012AC3
:100EF8001CD11B6813F4003FA7D01B4EB36823F026
:100F080003031343B360FFF7E3FA41F28838074657
:100F1800B368626803F00C03B3EB820FA3D0FFF74A
:100F2800D7FAC01B4045F3D903208FE7911E01294A
:100F38001B6802D813F0007FDEE713F0020FDBE72F
:100F4800EAB21A701B6803F00F03AB427FF47DAF5F
:100F58008FE70549E0688B6823F4E05303438B600F
:100F68008AE700BF003C0240003802408435000890
:100F78001800002014000020044B054A9B68C3F3A6
:100F88008223D35C034A1068D84070470038024077
:100F98009435000818000020044B054A9B68C3F3E9
:100FA8004233D35C034A1068D84070470038024087
:100FB8009435000818000020036813F0050FF7B5F2
:100FC80004463CD123689A0730D500230193454B4A
:100FD800454D1A6C42F080521A641B6C03F0805322
:100FE8000193019B2B6843F480732B60FFF770FA21
:100FF80006462B68D9054CD53A4D2B6F13F4407330
:101008004DD1236903F44072B2F5407F354A65D16A
:10101800916823F0704021F4F81120F440700143E6
:101028009160116FC3F30B030B431367206810F033
:1010380008001FBF2D4B227D1A60002027E02C4F8F
:10104800284E00233B60FFF743FA054633681B012F
:1010580017D4D4E902231B0743EA821362681343B7
:10106800C6F8843001233B60FFF732FA1D4E05466F
:1010780033681801A6D4FFF72BFA401B0228F7D9CA
:1010880004E0FFF725FA401B0228DFD9032003B04C
:10109800F0BDFFF71DFA801B0228AAD9F6E72269DE
:1010A80002F440729342ACD02B6F124A01211160B6
:1010B80023F44073002111602B672B6FDA07A0D54A
:1010C800FFF706FA41F2883706462B6F9B0798D43C
:1010D800FFF7FEF9801BB842F7D9D7E7916821F4EA
:1010E800F8119DE70038024000700040E0114742C7
:1010F80068004742400E474203689A68D20410B518
:1011080004460AD5DB68D90507D500F029FD226811
:10111800D368DBB263F4C073D36023689A6892041F
:101128000BD5DB689B0508D5204600F00FF8226830
:10113800D368DBB263F42073D360034B4FF40032FF
:101148005A610123637710BD003C01407047704726
:10115800704703681A69910710B504460ED5DA6816
:1011680092070BD56FF002021A61012202779B6980
:101178009B0777D001F078FD0023237723681A694D
:10118800500710D5DA6851070DD56FF004021A61BF
:10119800022222779B6913F4407F204668D001F031
:1011A80063FD0023237723681A6912070FD5DA68CD
:1011B80010070CD56FF008021A6104222277DB6948
:1011C800990720465AD001F04FFD00232377236862
:1011D8001A69D20610D5DA68D0060DD56FF010025C
:1011E8001A6108222277DB6913F4407F20464BD02E
:1011F80001F03AFD0023237723681A69D10708D53F
:10120800DA68D20705D56FF001021A61204601F0AD
:101218002FFD23681A69100608D5DA68110605D566
:101228006FF080021A61204600F09FF823681A695F
:10123800520608D5DA68500605D56FF040021A61E3
:101248002046FFF785FF23681A69910622D5DA68D8
:1012580092061FD56FF0200220461A61BDE81040A3
:1012680000F082B801F002FD2046FFF770FF83E727
:1012780001F0FCFC2046FFF76AFF92E701F0F6FC5C
:101288002046FFF764FFA0E701F0F0FC2046FFF7D7
:101298005EFFAFE710BD0000244A036890420ED0FD
:1012A800B0F1804F0BD0A2F57C42904207D002F5F6
:1012B8008062904203D002F58062904215D14A685C
:1012C80023F070031343194A904219D0B0F1804FAC
:1012D80016D0A2F57C42904212D002F5806290426C
:1012E8000ED002F5806290420AD0114A904207D08F
:1012F80002F58062904203D002F58062904203D1E9
:10130800CA6823F4407313434A6923F080031343E4
:1013180003608B68C3620B688362044B984204BF06
:101328000B69036301234361704700BF000001405C
:101338000040014010B50446A0B190F83D3003F0DC
:10134800FF021BB980F83C2000F0AAFD02232068A8
:1013580084F83D30211DFFF79FFF012384F83D30BD
:10136800002010BD0120FCE7704770470368DA6869
:1013780022F49072DA605A6922F001025A6120233D
:1013880080F83A307047000038B50368C1681A69B8
:10139800044622F440520A431A612569A268D968B2
:1013A800C0692A43656921F416412A4321F00C01DA
:1013B80002430A43DA605A69A16922F440720A4377
:1013C800B0F5004F5A61254A28D1934203D002F55F
:1013D800806293421FD1FFF7DFFD626800239218F5
:1013E8004FF019015B41A0FB0101FEF7D9FE642112
:1013F800B0FBF1F501FB1503DB003233B3FBF1F36E
:1014080003F007025B00216802EB051203F4F8738E
:1014180013448B6038BDFFF7AFFDDEE7934202D07F
:101428000F4A934217D1FFF7B7FD636819219A0055
:10143800A0FB01019B0FFEF7B3FE6422B0FBF2F1A3
:1014480002FB110324681B013233B3FBF2F303EBF5
:101458000113A360DEE7FFF78FFDE6E70010014008
:1014680000140140704710B5044640B390F8393075
:1014780003F0FF021BB980F83820FFF7F3FF22685A
:10148800242384F83930D36823F40053D3602046EA
:10149800FFF77AFF23681A6922F490421A615A69A1
:1014A80022F02A025A61DA6842F40052DA60002017
:1014B8002023E06384F8393084F83A3010BD0120E5
:1014C800FCE710B5044660B390F8393003F0FF022A
:1014D8001BB980F83820FFF7C5FF2268242384F859
:1014E8003930D36823F40053D3602046FFF74CFF0C
:1014F80023681A6922F490421A615A6922F022027A
:101508005A615A6942F008025A61DA6842F4005294
:10151800DA6000202023E06384F8393084F83A3018
:1015280010BD0120FCE790F83930202B18D1A9B163
:10153800A2B190F83830012B12D0C28401628284A3
:10154800016800232122C36380F8383080F83920ED
:10155800CA6842F08002CA60184670470120704786
:101568000220704790F83A30202B20D1E9B1E2B13F
:1015780090F83830012B1AD0C285828500232222A8
:10158800C36380F83A20026880F838308162D168F5
:1015980041F48071D160516941F001015161D16814
:1015A80041F02001D16018467047012070470220A1
:1015B800704710B590F83A30222B33D1816804690E
:1015C800836A0268B1F5805F23D15268ECB9C2F32F
:1015D800080223F8022B8362C48D013CA4B2C4859F
:1015E8008CB90368DA6822F02002DA60DA6822F43B
:1015F8008072DA605A6922F001025A61202380F869
:101608003A3000F0D1FD00200DE0D2B223F8012BD2
:10161800E1E7591C526881620CB91A70DCE702F0E4
:101628007F02FAE7022010BD03681A68D96870B50E
:1016380016075D69044607D196065CD58D065AD50E
:10164800BDE87040FFF7B5BF05F0010001F49075E3
:10165800054350D0D60705D5CD0542BFE36B43F00F
:101668000103E363530704D518B1E36B43F00203A6
:10167800E363960704D518B1E36B43F00403E3630F
:10168800150707D501F0200303431EBFE36B43F0A2
:101698000803E363E36B4BB3900604D5890602D5D0
:1016A8002046FFF786FF23685B69E56B03F040037C
:1016B80005F008051D43204619D0FFF757FE23689B
:1016C8005A6952060FD55A69606B22F040025A6176
:1016D80048B1264B0365FFF7BEF938B1606BBDE82A
:1016E8007040036D1847204600F074FD70BD00F08F
:1016F80071FDE563FAE7160628D50D0626D594F898
:101708003920212AF2D1A168226AB1F5805F18D167
:101718001188C1F308015960216981B90232226236
:10172800E28C013A92B2E284002ADFD1DA6822F030
:101738008002DA60DA6842F04002DA60D6E7013205
:10174800EDE7511C216212785A60E9E75006CDD5C1
:101758004A06CBD5DA6822F04002DA60202384F802
:101768003930204600F023FDC0E700BF7917000894
:1017780008B5806B0023C385C38400F02BFD08BD2A
:1017880090F83830012B11D00268242380F83930C2
:10179800D36823F00C0343F00803D360202380F8B8
:1017A8003930002380F838301846704702207047D7
:1017B80090F83830012B11D00268242380F8393092
:1017C800D36823F00C0343F00403D360202380F88C
:1017D8003930002380F838301846704702207047A7
:1017E80090F8392090F83A001043704786B00023EB
:1017F800052853D8DFE800F003111E2B3845009365
:10180800274B28481A6B42F001021A631B6B03F03E
:1018180001030093009B06B070470193204B2248B8
:101828001A6B42F002021A631B6B03F00203019366
:10183800019BF0E702931A4B1C481A6B42F0040212
:101848001A631B6B03F004030293029BE3E7039301
:10185800134B17481A6B42F008021A631B6B03F00C
:1018680008030393039BD6E704930D4B11481A6BA7
:1018780042F010021A631B6B03F010030493049BDD
:10188800C9E70593064B0C481A6B42F080021A63AD
:101898001B6B03F080030593059BBCE70020BAE7A8
:1018A80000380240000002400004024000080240E4
:1018B800000C024000100240001C0240FEF708BE67
:1018C800704708B5FEF7F8FDFFF7C1F8FFF7F8FF16
:1018D80008BD00000B4BDA68D2015EBFDA6842F03F
:1018E8008072DA60084B00225A601A6842F00102DE
:1018F8001A6000BF00BF00BF5868B0FA80F0400906
:10190800704700BFF0ED00E0001000E008B5FFF7F9
:10191800E1FFFEF7B7FDBDE8084000F069BE30B54D
:10192800436891FAA1F4B4FA84F50124AC4023EA9F
:10193800040391FAA1F1B1FA81F18A40134343609B
:1019480030BD30B5C46891FAA1F3B3FA83F3032527
:101958005B0005FA03F324EA030391FAA1F1B1FA53
:1019680081F149008A401343C36030BD431C04D051
:101978000C3131F90C3C5A1C01D1002070478342CC
:1019880001F10C01F5D101207047000000F00F02B1
:10199800484B2DE9F041C0F303141FFA80F80130D9
:1019A80053F822500E4601F0070703D14248472159
:1019B80000F0E8F82046FFF719FF8368044695FA17
:1019C800A5F2B2FA82F20321520001FA02F223EAE6
:1019D800020195FAA5F3B3FA83F35A00032393405F
:1019E8000B438360032F35D8DFE807F01D1D021D68
:1019F80018F0080FC6F3062217D0406A2B0A93FA8C
:101A0800A3F1B1FA81F14FF00F0C89000CFA01F142
:101A180020EA010193FAA3F3B3FA83F39B0002FAD5
:101A280003F30B4363623B4619E0036A95FAA5F199
:101A3800B1FA81F10F20890000FA01F123EA0101CE
:101A480095FAA5F3B3FA83F39B0002FA03F30B4369
:101A58002362E8E71848712100F094F80023216810
:101A680095FAA5F2B2FA82F20320520000FA02F2C5
:101A780021EA020195FAA5F2B2FA82F252009340E5
:101A8800013F0B43012F236007D816F0080218BF47
:101A9800012229462046FFF742FFC6F30112012A18
:101AA80002D0022A18BF002229462046BDE8F0418C
:101AB800FFF747BF44350008C6340008431C06D169
:101AC8007047834202D18968FFF760BF0C31B1F9D2
:101AD80000305A1CF5D102489D2100F053B800BFD0
:101AE800C6340008B1F900305A1C01D100207047F3
:101AF800834201D1486870470C31F3E7431C01D099
:101B0800FFF7F0BF002070474B6813B94FF0FF3064
:101B18007047834202D1B1F9000070470C31F3E7F6
:101B280008B1FFF7F1BF4FF0FF307047B1F900304F
:101B38005A1C01D118467047834201D18868704702
:101B48000C31F3E7431C01D0FFF7F0BF7047884220
:101B580004D018B100290CBF01460021084670477F
:101B6800034B1B6813B1034A10681847704700BF3E
:101B7800C4000020E80000200148FFF7BDBA00BFFC
:101B8800C8000020FEE700000F49D1F8883043F470
:101B98007003C1F888300D4B1A68002042F001022A
:101BA8001A6098601A6822F0847222F480321A60EF
:101BB800074A5A601A6822F480221A60D8604FF0E7
:101BC80000638B60704700BF00ED00E00038024002
:101BD800103000240438704703683F4A934288B0A5
:101BE8001BD1002200923D4A516C41F00101516421
:101BF800526C02F001020092009A394A93423FD196
:101C080000230593354B5A6C42F480325A645B6C5E
:101C180003F480330593059B17E0B3F1804F16D08A
:101C2800304A934220D0304A934239D02F4A9342C7
:101C3800E3D100230493294B1A6C42F008021A647A
:101C48001B6C03F008030493049B08B07047002240
:101C58000192224A116C41F001011164126C02F0E8
:101C680001020192019AC8E7002202921B4A116CF4
:101C780041F002011164126C02F002020292029A0F
:101C88001B4A934218D100230693144B5A6C42F412
:101C980000325A645B6C03F400330693069BD4E766
:101CA800002203920D4A116C41F004011164126C78
:101CB80002F004020392039A0E4A9342C5D100230C
:101CC8000793064B5A6C42F480225A645B6C03F407
:101CD80080230793079BB8E70000014000380240C3
:101CE800004001400004004000080040000C004093
:101CF80000440140004801400368224A93420DD144
:101D080021494A6C22F001024A64204A934222D1B6
:101D18001D4A536C23F4803353647047B3F1804FEA
:101D28000ED01B4A934211D01A4A93421BD01A4A2A
:101D38009342EAD1144A136C23F0080313647047E2
:101D480011490A6C22F001020A64DEE70E490A6CA6
:101D580022F002020A64114A934209D10A4A536CDA
:101D680023F40033D8E708490A6C22F004020A6415
:101D78000B4A934200D07047034A536C23F48023E4
:101D8800CAE700BF0000014000380240004001409F
:101D98000004004000080040000C004000440140DE
:101DA8000048014008B5431C014611D0184B984221
:101DB80024D010D8A3F50063984221D003F580639E
:101DC80098421FD0B0F1804F1ED01248FFF7DAFEBC
:101DD8006FF00D0008BD104B984217D009D8A3F535
:101DE8008843984212D003F580439842EDD11820D9
:101DF800F0E70A4B9842E8D11A20EBE73220E9E7EE
:101E08001D20E7E71E20E5E71C20E3E71920E1E7AE
:101E1800000C00409C350008004401400048014087
:101E280008B5431C014612D0194B984224D016D845
:101E3800A3F57843984221D00CD8B0F1804F1FD039
:101E4800A3F5806398421DD01248FFF79BFE6FF000
:101E58000D0008BD104B9842F6D13220F9E70F4B20
:101E6800984211D003F5806398420FD0A3F5006320
:101E78009842E9D11820ECE71B20EAE71E20E8E7A2
:101E88001C20E6E71D20E4E71920E2E71A20E0E736
:101E9800000001409C350008000C0040004401404F
:101EA80038B50446FFF798FE0068FFF77BFFD4E9D2
:101EB8001012FEF751FD2068FFF774FFFEF77EFD54
:101EC8002068FFF7ADFF05462068FFF76BFF8542E6
:101ED8000DD02068FFF7A4FFD4E91012FEF73CFDEF
:101EE8002068FFF79DFFBDE83840FEF767BD38BDA5
:101EF8002DE9FF4704468946B0F94C004C49DDF806
:101F080030A090461F46FFF7F9FD4A490546B4F947
:101F18004E00FFF7F3FD0646002D00F08580B4F96A
:101F28004E30013301D000287ED031462846FFF7D5
:101F38000EFE2060002877D03F4B98423AD103F537
:101F480094335A6A42F010025A625A6A22F0100216
:101F58005A62002201925A6C42F010025A645B6C79
:101F680003F010030193019B2523A4F85030304956
:101F7800B4F94C00FFF7A2FD26B12E49B4F94E0082
:101F8800FFF79CFD94F851202C4B6761201D43F806
:101F9800220023680C22C4E901390023C4E9038A1A
:101FA800C4E906232362002E39D104B0BDE8F04706
:101FB800FFF787BA224B984217D103F5FA331A6A0A
:101FC80042F400321A621A6A22F400321A620022BB
:101FD80002921A6C42F400321A641B6C03F4003348
:101FE8000293029B4FF49373BFE7164B9842BED1FE
:101FF800154D6B6A43F020036B626B6A23F0200374
:102008006B62002303936B6C43F020036B646B6C6F
:1020180003F020030393039B40F24723A5E704B092
:10202800BDE8F047FFF71FBA04B0BDE8F08700BF6E
:1020380024380008D037000800100140EC000020C8
:1020480000440040001401400038024008B1FFF786
:102058004FBF704708B5074B90F8512053F822003E
:10206800FFF7BEFB00F02200A0F1220358425841BE
:1020780008BD00BFEC00002008B5074B90F85120C0
:1020880053F82200FFF7ACFB00F02100A0F1210378
:102098005842584108BD00BFEC00002070B50E46FC
:1020A800054610B94FF0FF3070BDFFF7D3FF044667
:1020B8000028F7D12946012211F8523F337095F8CC
:1020C8005100034B53F82000FFF74CFA2046EBE78A
:1020D800EC00002070B50E460446F0B1FFF7BAFFD9
:1020E8000546D0B994F950006664FEF775FC94F87B
:1020F80051000A4B04F1520153F820000122FFF766
:1021080031FA94F950002A460121FEF725FC94F98A
:102118005000BDE87040FEF751BC70BDEC000020D7
:1021280010B50446E8B1816490F95000FEF754FCFC
:10213800A36DB4F8621094F8510013FA81F1094BB9
:10214800012253F82000FFF7EEF994F9500000221D
:102158000121FEF701FC94F95000BDE81040FEF79C
:102168002DBC10BDEC00002050B1B0F94E30013349
:1021780006D190F85120034B53F82200FFF700BB1B
:10218800704700BFEC00002050B1B0F94E30013369
:1021980006D190F85120034B53F82200FFF708BBF3
:1021A800704700BFEC000020036C0438184710B5D6
:1021B800436C04460438984701300AD0B4F85E10DE
:1021C800636D20460122BDE8104013FA81F1FFF744
:1021D800AAB910BD1FB503680446186810F00100BD
:1021E80013D0002200921A6800925B680093009B4B
:1021F800201FFFF72FFF40BB012204F14E012046AC
:1022080004B0BDE81040FFF7ADB9196811F002013C
:1022180006D001901A6801925B680193019BE7E779
:102228001A6812F0040206D002911A6802925B68DA
:102238000293029BDCE719680907D9D503921A684B
:1022480003925B680393039BD2E704B010BD0000C0
:1022580008B52520FEF7EAFB024B1868BDE80840E0
:10226800FFF7E2B9EC00002008B52620FEF7DEFBF8
:10227800024B5868BDE80840FFF7D6B9EC000020CB
:1022880008B54720FEF7D2FB024B9868BDE8084026
:10229800FFF7CAB9EC00002002680D4B9A4282B0E1
:1022A8000BD1002301930B4B5A6C42F480725A6491
:1022B8005B6C03F480730193019B074BB3F9000037
:1022C800C30503D4054902B0FFF7F8BB02B0704755
:1022D80000200140003802401C000020C0350008E2
:1022E800084B01685A6A42F480725A625A6A22F4A8
:1022F80080725A62044A914202BF5A6C22F4807278
:102308005A6470470038024000200140F0B599B087
:10231800054648220E4606A8002100F06BFE002163
:10232800102202A800F066FE0024E905ADF8064078
:10233800ABB20FD5B5F5827F0CDA434A06926FF43B
:10234800807213449BB2022B02D8404A52F82340B1
:10235800072710E03E492846FFF7D0FB3C49069086
:102368002846FFF7EFFBC0F3C434631E112B4FF070
:10237800010788BF0024069B13B9002019B0F0BDDF
:102388004FF48033082E079356D00A2E57D0062EC6
:1023980058D14FF040732F4A08930023CDE90933F1
:1023A800CDE910238DF830308DF838300F938DF843
:1023B8004830169314938DF85430274B012606A8FD
:1023C8000B960D961D80FEF789F80028D5D1122CA2
:1023D8000294D2D8059002A906A8CDE90367FEF7B2
:1023E8000BFA0028C9D106A8FEF738F90028C4D18D
:1023F8000A2106A8FEF7ADF90028BED106A8FEF707
:1024080097FA830505D506A8FEF7F2F980B2ADF86C
:10241800060006A8FEF782F90028AED106A8FEF746
:1024280003F90028A9D10D4A536823F440035360E7
:10243800BDF8060080B2A1E74FF00073ABE74FF09C
:102448008073A8E70023A6E700200140B435000800
:10245800C03500080100000F1C00002000230140C7
:1024680073B51549154C0646FFF748FB00F06CFBA1
:1024780054F82030054673B90F493046FFF73EFB44
:1024880001906C2000F02CFD0199064600F092FBAB
:1024980054F825301E6054F825301C684CB120468D
:1024A80000F0CEFB6C21204602B0BDE8704000F081
:1024B80019BD02B070BD00BF683600085003002087
:1024C800836810B5044613B1032201469847204695
:1024D80010BD00000023012803F1010202D04008CA
:1024E8001346F8E71421DBB24B43044A181D104485
:1024F800816811B11A44136918477047F800002021
:102508000120FEF7BBBA0220FEF7B8BA0420FEF796
:10251800B5BA0820FEF7B2BA1020FEF7AFBA38B540
:1025280005242025A8B2FEF7A9FA013C4FEA450583
:10253800F8D138BD38B506244FF48065A8B2FEF747
:102548009DFA013C4FEA4505F8D138BD204B0721DB
:102558001975082183F82810092183F83C100A21ED
:10256800062283F8501017211A7083F8641000228D
:1025780083F8781083F88C1083F8A01083F8B410CF
:102588002821DA601A625A639A64DA651A67C3F80E
:102598008420C3F89820C3F8AC20C3F8C02083F87F
:1025A800C810C3F8D42083F8DC10C3F8E82083F8F7
:1025B800F010C3F8FC2083F80411C3F8102183F845
:1025C8001811C3F8242183F82C11C3F83821704757
:1025D800F800002038B5054CA4F5A075143C201D62
:1025E800FFF76EFFAC42F9D138BD00BF38020020BA
:1025F80010B59AB00023284A0193116C41F080511C
:102608001164126C02F080520192019A234A0293DB
:10261800116841F440411160126802F4404202928C
:10262800029A06220E920122CDE91022102212925D
:102638000222CDE9142308246423CDE916430EA809
:10264800042318921993FEF725FA18B114489B2110
:10265800FFF798FA0F230224CDE903344FF4805290
:102668000023032103A8CDE905320793FEF7E8FB11
:1026780018B10B48A721FFF785FA4FF4807308A813
:1026880008940C93FEF798FC18B10548AD21FFF7A4
:1026980079FA1AB010BD00BF00380240007000403F
:1026A80078380008DFF834D0002103E00C4B5B5881
:1026B800435004310B480C4B42189A42F6D30B4A4C
:1026C80002E0002342F8043B094B9A42F9D3FFF792
:1026D8005BFA00F05BFC00F0F3FB7047000002209F
:1026E800983B0008000000208C0000208C0000208F
:1026F8008C030020FEE791420FD008D9891A0123E4
:102708008B40984208D30130C8400138704720B147
:102718000130511A8840F8E70020704710B500F0E2
:10272800E7FB431C0AD0064C2168FFF7EFFD054B79
:1027380021681A68BDE81040FFF7DDBF002010BD12
:10274800200000202400002033282DE9F0410E4607
:1027580027D8254B33F91040621C42D0234DC4F3CF
:10276800031704F00F0855F8273023FA08F3DB079E
:1027780010D51F492046FFF7F9F810B12046FFF79A
:102788006FFE012303FA08F255F8273023EA020303
:1027980045F82730052E1ED8DFE806F00D19131569
:1027A800171B35380C281CD8124B53F820200E4B19
:1027B80033F91240D0E700212046BDE8F041FFF789
:1027C800E5B81021F8E72021F6E70321F4E7012115
:1027D800F2E70921F0E7BDE8F04107484921FFF792
:1027E800D1B9BDE8F08100BF2439000838020020C3
:1027F80068360008F03800088C390008FFF75EB822
:1028080038B5044648B1FFF759F8054600F06EFBA5
:10281800FFF754F8431BA342F8D338BDB0F8623031
:10282800013303F03F03A0F86230B0F86230B0F82B
:102838005E009BB298424FF0FF3018BF00207047EF
:10284800B0F8F430B0F8F000181A00F03F00704704
:10285800B0F8F430B0F8F0209BB293421ABFD0F829
:10286800E830985C4FF0FF30704713B50DF1070161
:102878000446FFF713FC90B9B4F86030B4F85C2054
:10288800013303F03F03934209D0B4F86020616D2F
:102898009DF8070092B29BB28854A4F8603002B049
:1028A80010BD0000012370B50374B0F9E2300133A4
:1028B80004460E4600F1940508D190F8F8302BB183
:1028C800002380F8F8302846FFF74EFCB4F8F210E1
:1028D8004B1C03F03F03B4F8F62092B29342FAD0AF
:1028E800D4F8EC2028465654A4F8F230FFF7C4FB7D
:1028F80018B903492846FFF713FC012070BD00BF33
:1029080025280008037C33B1B0F8F220B0F8F6307F
:102918009BB29A42FAD1704700F11103914208BF65
:102928004FF0FF31A0F8E020C0F8E83000F1510284
:102938000023A0F8F430C0E93B23A0F8E210A0F887
:10294800F630704770B54FF47A7316460022C0E926
:102958000123164B03604FF6FF73A0F8E230144BC7
:10296800984204460D4613D1124B1A88A0F8E2206B
:102978005B88A0F8E0301EB14FF6FF73A4F8E23090
:102988002046B4F9E020B4F9E210FFF7C5FF70BDA6
:1029980009492846FFF7C4F80849A4F8E200284680
:1029A800FFF7BEF8A4F8E000E5E700BF803A0008AA
:1029B8005002002024390008D037000824380008C5
:1029C800B0F9E230013310B504460ED103685B69F3
:1029D800984794F8F83043B9012384F8F83004F1A3
:1029E8009400BDE81040FFF7CFBB10BD02F007030D
:1029F800023BDBB2042B2DE9F7430E46C0F8FC106E
:102A080098BF1F4980F8F92098BFCC5C02F03003CA
:102A180088BF0024302B054626D101344FF4C06707
:102A280012F0080F14BF4FF400594FF00009082C9A
:102A380021D0092C21D013484FF4C171FFF7A2F817
:102A480005F1940831463B4622464046CDF80090B1
:102A5800FFF7FCFA2846FFF7B3FF0B49404603B0DF
:102A6800BDE8F043FFF736BB12F020071CBF013466
:102A78004FF48067D4E70024E2E74FF48054DFE79F
:102A8800723A0008FE3900087328000810B5044699
:102A9800FFF796FFB4F8F420B4F8F03092B29A42F7
:102AA8001FBFD4F8E820D05C013303F03F0314BF04
:102AB800A4F8F0304FF0FF3010BD00000249034881
:102AC8000022FFF73FBF00BF004400405002002033
:102AD80010B5044620B9074840F2CB31FFF752F849
:102AE8002046FFF777F80068436D13B1BDE8104042
:102AF800184710BDA03A000870B5054620B911481E
:102B080040F2DE31FFF73EF82B7F013B072B17D849
:102B1800DFE803F0140416101616161202242846CD
:102B2800FFF758F8006800EB8404636D43B1BDE813
:102B3800704018470324F2E70424F0E70124EEE785
:102B480070BD00BFA03A0008164A904203461BD049
:102B5800B0F1804F1AD0A2F57C42904218D002F50D
:102B68008062904216D002F58062904214D04FF6EF
:102B7800FF700D4A934211D00C4A934210D00C4A70
:102B8800934208BF072070470020F2E70120F0E7D2
:102B98000220F1E70320F2E7042070470520704780
:102BA80006207047000001400040014000440140F9
:102BB8000048014073B5044608460D46FFF7C4FFB8
:102BC8004FF6FF739842064603D11B483221FEF7A1
:102BD800D9FF1A4BE56004F10802002543F82620C6
:102BE8000E2304F10C00C4E91335C4E90B55C4E9FC
:102BF8000D55C4E90F5584F82850656484F8485089
:102C080084F84950A4600190FEF7E6FF4FF6FF7381
:102C1800C4E91555C4E91755C4E91955C4E900555F
:102C2800C4E90553C4E90755019825616562FEF7B3
:102C380081FB204602B070BDA03A00085003002076
:102C4800014638B5044651F80C0FFFF77DFF0546DD
:102C58000846FFF751F8034B002243F82520204689
:102C680038BD00BF50030020FFF746BFFFF744BF41
:102C7800FFF72EBF10B5074C206810B10430FEF7DF
:102C880068FAA06920B1BDE810400430FEF761BAC7
:102C980010BD00BF50030020034B186810B104306A
:102CA800FEF757BA704700BF50030020034B58681F
:102CB80010B10430FEF74DBA704700BF5003002032
:102CC800034B986810B10430FEF743BA704700BF51
:102CD80050030020034BD86810B10430FEF739BA0E
:102CE800704700BF50030020034B186910B104302F
:102CF800FEF72FBA704700BF50030020034B5869F6
:102D080010B10430FEF725BA704700BF5003002009
:102D1800034BD86910B10430FEF71BBA704700BFE7
:102D280050030020F8B505460E4617460024BC425D
:102D380007D02B68315D1B682846984708B10134D5
:102D4800F5E72046F8BD13B50446084659B1019188
:102D5800FDF71EFA236801995B680246204602B017
:102D6800BDE81040184702B010BD08B5FFF7EBFFEB
:102D780008BD03681B68184708B50249FFF7E3FF59
:102D880008BD00BF133B000838B50546FFF7DBFF59
:102D980004462846FFF7F0FF204438BD30B58BB015
:102DA80000238DF82430012A98BF0A2209AC0D4669
:102DB800B1FBF2F101FB125303F0FF03092B94BF9F
:102DC80030333733DBB2AA4204F8013DEFD921464C
:102DD800FFF7B9FF0BB030BD2DE9F04107460E46AD
:102DE80014462AB90368BDE8F0411B68C9B2184700
:102DF8000A2A0DD100290CDA2D21FFF7BAFF224645
:102E0800054671423846FFF7C9FF2844BDE8F081FE
:102E1800D2B2BDE8F041FFF7C1BFFFF7DDBF38B55B
:102E28000546FFF7D9FF04462846FFF7A5FF2044CB
:102E380038BD10B50446FFF7E1FCE0602368204682
:102E4800DB689847002808DAFFF7D8FCE368C01A5F
:102E5800A3689842F2D34FF0FF3010BDF8B506468C
:102E68000D4617460024BC4207D03046FFF7E1FF65
:102E7800031E02DB2B550134F5E72046F8BD2DE98A
:102E8800F0410746884616461D4673B10024384669
:102E9800FFF7CFFF031E05DB434503D0335501344D
:102EA800A542F4D12046BDE8F0811C46FAE77047F8
:102EB80008B50320FDF73EFDBDE8084000F014B852
:102EC80008B5FFF7F4FFFDF7A5F9044CFDF752FA32
:102ED800002CFBD0AFF30080F8E700BF0000000033
:102EE80000F078B800F07EB8FEF710BD704700001B
:102EF8000C280CD8234B53F82030332B25D9A3F1B9
:102F080035020C2A17D94FF0FF3318467047A0F145
:102F180035020C2A16D81B4B53F82230332B14D900
:102F2800342BF0D9412BEED8164B53F822300C2A0B
:102F380098BFA3F13502134B53F82220124B33F9F3
:102F4800123005E0332806D803460F4A32F9133009
:102F58005A1CDAD101E034280AD844280BD0452875
:102F68000CD0422840F2011318BF4FF0FF33CCE7D2
:102F78004128F2D8D8E74FF48173C6E740F203132B
:102F8800C3E700BFF03800082439000870B50D4DBC
:102F98000D4C641BA4100026A64209D10B4D0C4C05
:102FA80000F05AFA641BA4100026A64205D170BD91
:102FB80055F8043B98470136EEE755F8043B984727
:102FC8000136F2E7803B0008803B0008803B0008A0
:102FD800903B0008024B0146186800F063B800BF38
:102FE80028000020024B0146186800F00BB800BF0B
:102FF8002800002002440346934200D1704703F89A
:10300800011BF9E737B5002948D051F8043C019075
:10301800002BA1F10404B8BFE41800F0AFF8204A6F
:1030280001981368154633B96360146003B0BDE8AE
:10303800304000F0A9B8A3420BD921686218934226
:1030480004BF1A685B68636004BF521822602C6072
:10305800ECE71A465B680BB1A342FAD91168551818
:10306800A5420BD1246821445418A3421160DDD134
:103078001C685B68536021441160D7E702D90C23B0
:103088000360D3E7256861198B4204BF19685B6840
:10309800636004BF491921605460C7E703B030BDBD
:1030A80070030020F8B5CD1C25F0030508350C2D5C
:1030B80038BF0C25002D064601DBA94203D90C2395
:1030C80033600020F8BD00F059F821490A68144619
:1030D8009CB9204F3B6823B92146304600F03CF8A4
:1030E80038602946304600F037F8431C23D10C23BA
:1030F8003360304600F048F8E3E723685B1B17D4D9
:103108000B2B03D923601C44256004E06368A242AA
:103118000CBF0B605360304600F036F804F10B002A
:10312800231D20F00700C21ACCD01B1AA350C9E7F0
:1031380022466468CCE7C41C24F00304A042E3D010
:10314800211A304600F008F80130DDD1CFE700BF82
:10315800700300207403002038B5064D0023044690
:1031680008462B60FDF74AF9431C02D12B6803B1CE
:10317800236038BD7C030020704770470148FFF783
:10318800FBBF00BF840300200148FFF7F6BF00BF64
:10319800840300202DE9F047089D04468C46002B47
:1031A80040F083808A42174647D9B2FA82F242B188
:1031B800C2F1200024FA00F09140974040EA010C47
:1031C80094404FEA1748230CBCFBF8F61FFA87FE19
:1031D80008FB16C143EA014306FB0EF1994209D9DF
:1031E800FB1806F1FF3080F01981994240F21681F0
:1031F800023E3B445B1AA4B2B3FBF8F008FB103361
:1032080044EA034400FB0EFEA64509D93C1900F127
:10321800FF3380F00581A64540F2028102383C4424
:1032280040EA0640A4EB0E0400261DB1D44000235A
:10323800C5E900433146BDE8F08702B9FFDEB2FABE
:1032480082F2002A50D1CB1B4FEA174E1FFA87F89B
:103258000126B3FBFEFC210C0EFB1C3341EA0341A3
:1032680008FB0CF38B4207D979180CF1FF3002D216
:103278008B4200F2E9808446C91AA3B2B1FBFEF082
:103288000EFB101143EA014408FB00F8A04507D9DA
:103298003C1900F1FF3302D2A04500F2D98018464C
:1032A800A4EB080440EA0C40BFE78B4209D9002D83
:1032B80000F0B1800026C5E9000130463146BDE87E
:1032C800F087B3FA83F6002E4AD18B4202D38242AA
:1032D80000F2B880841A61EB030101208C46002DAE
:1032E800A8D0C5E9004CA5E7C2F1200320FA03F6EF
:1032F800974001FA02F04FEA174ED9403043030CC9
:10330800B1FBFEF61FFA87F80EFB161143EA0143DC
:1033180006FB08F1994204FA02F409D9FB1806F1F0
:10332800FF3C80F08D80994240F28A80023E3B4407
:103338005B1A81B2B3FBFEF00EFB103341EA034186
:1033480000FB08F38B4207D9791800F1FF3C73D2D0
:103358008B4271D902383944CB1A40EA064678E7DD
:10336800C6F1200C03FA06F422FA0CF31C4320FAE7
:103378000CF701FA06F34FEA144E21FA0CF11F4339
:103388003B0CB1FBFEF91FFA84F80EFB191143EA56
:10339800014109FB08FA8A4502FA06F200FA06F327
:1033A80008D9611809F1FF3048D28A4546D9A9F1F0
:1033B80002092144A1EB0A01BFB2B1FBFEF00EFBEA
:1033C800101147EA014700FB08F8B84507D9E71983
:1033D80000F1FF312ED2B8452CD90238274440EAF3
:1033E8000940A7EB0807A0FB02894F45C646494696
:1033F8001AD317D05DB1B3EB0E0267EB010707FADA
:103408000CFCF2404CEA0202F740C5E9002700260E
:103418003146BDE8F0872E4628460BE70646E9E622
:103428001846FDE64345E5D2B8EB020E69EB040108
:103438000138DFE70846D2E760468DE78146B9E7FD
:10344800664675E730464AE7ACF1020C394413E7A3
:1034580002383C4424E700BFF8B500BFF8BC08BCFC
:103468009E467047F8B500BFF8BC08BC9E4670473A
:10347800576974616D004D4573616765006B6F6EC8
:10348800696563206D657373656167650053656E73
:10349800736F722076616C75650044656166756C42
:1034A800742076616C7565004F74727A796D616EFF
:1034B8006F20576961646F6D6F73633A2000433AF8
:1034C8005C55736572735C4D61636975732D6C61CE
:1034D80070746F705C417070446174615C4C6F63B0
:1034E800616C5C41726475696E6F31355C706163E3
:1034F8006B616765735C53544D33325C6861726409
:10350800776172655C73746D33325C312E382E309E
:103518005C6C69627261726965735C53726357723D
:1035280061707065725C7372635C73746D33325C66
:1035380070696E6D61702E6300000000010000006C
:103548000200000004000000080000001000000055
:103558002000000040000000800000000001000082
:103568000002000000040000000800000010000035
:103578000020000000400000008000000000000063
:10358800000000000102030406070809000000000B
:103598000102030454494D3A20556E6B6E6F776EE5
:1035A8002074696D6572204952516E001200001036
:1035B800110000001200000000000000002001407F
:1035C800030000000100000000200140038000000B
:1035D8000400000000200140030002000600000073
:1035E8000020014003000300070000000020014004
:1035F80003800300100000000020014003000400C5
:103608001100000000200140038004002000000099
:1036180000200140030005002100000000200140B7
:10362800038005002200000000200140030006007E
:103638002300000000200140038006002400000051
:103648000020014003000700250000000020014081
:1036580003800700FFFF00000000000000000000DA
:1036680000000000000C0040128200000100000071
:10367800000C00401202010002000000000C004093
:103688001282010003000000000C00401202020038
:103698000500000000000040128100000600000044
:1036A80000040040128200000700000000040040EF
:1036B8001202010008000000000001401281000011
:1036C8000900000000000140120101000A0000008A
:1036D80000000140128101000B00000000000140C1
:1036E800120102000F0000000000004012810000DB
:1036F80010000000000400401282010011000000C8
:103708000004004012020200130000000000004004
:1037180012010100140000000004004012820000A1
:10372800150000000004004012020100160000000D
:103738000008004012820000170000000008004046
:103748001202010018000000000800401282010067
:103758001900000000080040120202001A000000D0
:1037680000000040128101001D000000000001401F
:10377800128110001E00000000000140120111001B
:103788001F00000000000140128111002600000007
:1037980000040040128200002700000000040040DE
:1037A80012020100280000000004004012820100FB
:1037B800290000000004004012020200FFFF000080
:1037C800000000000000000003000000004400406A
:1037D800120700000A000000001001401207000054
:1037E8000C00000000140140120800001300000043
:1037F80000100140120700001700000000100140EF
:103808001207000027000000001401401208000001
:10381800FFFF0000000000000000000002000000A0
:103828000044004012070000090000000010014099
:10383800120700000B0000000014014012080000ED
:103848000F000000001001401207000016000000E1
:10385800001001401207000026000000001401407B
:1038680012080000FFFF0000000000000000000038
:10387800433A5C55736572735C4D61636975732D6A
:103888006C6170746F705C417070446174615C4C01
:103898006F63616C5C41726475696E6F31355C7021
:1038A80061636B616765735C53544D33325C686167
:1038B8007264776172655C73746D33325C312E3873
:1038C8002E305C76617269616E74735C4E55434C40
:1038D800454F5F4634313152455C76617269616E9D
:1038E800742E6370700000002E0000002F0000008E
:1038F80030000000310000003200000033000000FA
:103908000B0000000C0000001C0000001D0000005F
:1039180023000000290000002D0000000300020021
:103928000A001300150014001A00080009002700F7
:103938001600070006000500190018002A002C00D0
:10394800FFFF0D000E000F0017002D002E002F00A6
:1039580050005100220023002B00320029002800CB
:10396800260025000C000B001C001B001200110093
:103978001F001E001D0024000000010004001000AC
:1039880021002000433A5C55736572735C4D616396
:103998006975732D6C6170746F705C4170704461EF
:1039A80074615C4C6F63616C5C41726475696E6FC5
:1039B80031355C7061636B616765735C53544D337B
:1039C800325C68617264776172655C73746D3332FE
:1039D8005C312E382E305C636F7265735C61726483
:1039E80075696E6F5C776972696E675F646967692C
:1039F80074616C2E6300433A5C55736572735C4D59
:103A080061636975732D6C6170746F705C4170705F
:103A1800446174615C4C6F63616C5C41726475698C
:103A28006E6F31355C7061636B616765735C5354AD
:103A38004D33325C68617264776172655C73746D72
:103A480033325C312E382E305C636F7265735C6183
:103A5800726475696E6F5C486172647761726553F0
:103A6800657269616C2E63707000060007000800BB
:103A78000000000000000000AD2800082D2D0008FF
:103A880049280008952A0008592800080D29000827
:103A9800652E0008872E0008433A5C5573657273DB
:103AA8005C4D61636975732D6C6170746F705C41F6
:103AB8007070446174615C4C6F63616C5C417264EA
:103AC80075696E6F31355C7061636B616765735CD6
:103AD80053544D33325C68617264776172655C730C
:103AE800746D33325C312E382E305C636F726573BF
:103AF8005C61726475696E6F5C486172647761724B
:103B08006554696D65722E637070000D0A000000BF
:103B1800000000000000000000000000000000009D
:103B2800000000000000000000000000000000008D
:103B3800000000000000000000000000000000007D
:103B4800000000000000000000000000000000006D
:103B5800000000000000000000000000000000005D
:103B6800000000000000000000000000000000004D
:083B780024F6FF7F01000000AC
:103B8000B92E00080102000855250008C52A0008C2
:083B9000DD010008DD2500083D
:103B98000000010100010100E8030000900300207B
:103BA80001000000100000000024F400FFFF0000E6
:103BB8000A0000000A0000002C000020000000009D
:103BC800383B0008583B0008183B0008000000007C
:103BD80000000000000000000000000000000000DD
:103BE80000000000000000000000000000000000CD
:103BF80000000000000000000000000000000000BD
:103C080000000000000000000000000000000000AC
:0C3C1800000000000000000000000000A0
:04000005080026AD1C
:00000001FF
